{
  "_format": "hh-sol-artifact-1",
  "contractName": "TokenDrop",
  "sourceName": "contracts/TokenDrop.sol",
  "abi": [
    {
      "inputs": [
        {
          "internalType": "address",
          "name": "_relayAddress",
          "type": "address"
        }
      ],
      "stateMutability": "nonpayable",
      "type": "constructor"
    },
    {
      "anonymous": false,
      "inputs": [
        {
          "indexed": true,
          "internalType": "address",
          "name": "owner",
          "type": "address"
        },
        {
          "indexed": true,
          "internalType": "address",
          "name": "spender",
          "type": "address"
        },
        {
          "indexed": false,
          "internalType": "uint256",
          "name": "value",
          "type": "uint256"
        }
      ],
      "name": "Approval",
      "type": "event"
    },
    {
      "anonymous": false,
      "inputs": [
        {
          "indexed": true,
          "internalType": "address",
          "name": "from",
          "type": "address"
        },
        {
          "indexed": true,
          "internalType": "address",
          "name": "to",
          "type": "address"
        },
        {
          "indexed": false,
          "internalType": "uint256",
          "name": "value",
          "type": "uint256"
        }
      ],
      "name": "Transfer",
      "type": "event"
    },
    {
      "inputs": [],
      "name": "admin",
      "outputs": [
        {
          "internalType": "address",
          "name": "",
          "type": "address"
        }
      ],
      "stateMutability": "view",
      "type": "function"
    },
    {
      "inputs": [
        {
          "internalType": "address",
          "name": "sender",
          "type": "address"
        },
        {
          "internalType": "bytes",
          "name": "signature",
          "type": "bytes"
        }
      ],
      "name": "airdrop",
      "outputs": [],
      "stateMutability": "nonpayable",
      "type": "function"
    },
    {
      "inputs": [
        {
          "internalType": "address",
          "name": "owner",
          "type": "address"
        },
        {
          "internalType": "address",
          "name": "spender",
          "type": "address"
        }
      ],
      "name": "allowance",
      "outputs": [
        {
          "internalType": "uint256",
          "name": "",
          "type": "uint256"
        }
      ],
      "stateMutability": "view",
      "type": "function"
    },
    {
      "inputs": [
        {
          "internalType": "address",
          "name": "spender",
          "type": "address"
        },
        {
          "internalType": "uint256",
          "name": "amount",
          "type": "uint256"
        }
      ],
      "name": "approve",
      "outputs": [
        {
          "internalType": "bool",
          "name": "",
          "type": "bool"
        }
      ],
      "stateMutability": "nonpayable",
      "type": "function"
    },
    {
      "inputs": [
        {
          "internalType": "address",
          "name": "account",
          "type": "address"
        }
      ],
      "name": "balanceOf",
      "outputs": [
        {
          "internalType": "uint256",
          "name": "",
          "type": "uint256"
        }
      ],
      "stateMutability": "view",
      "type": "function"
    },
    {
      "inputs": [],
      "name": "decimals",
      "outputs": [
        {
          "internalType": "uint8",
          "name": "",
          "type": "uint8"
        }
      ],
      "stateMutability": "view",
      "type": "function"
    },
    {
      "inputs": [
        {
          "internalType": "address",
          "name": "spender",
          "type": "address"
        },
        {
          "internalType": "uint256",
          "name": "subtractedValue",
          "type": "uint256"
        }
      ],
      "name": "decreaseAllowance",
      "outputs": [
        {
          "internalType": "bool",
          "name": "",
          "type": "bool"
        }
      ],
      "stateMutability": "nonpayable",
      "type": "function"
    },
    {
      "inputs": [
        {
          "internalType": "address",
          "name": "spender",
          "type": "address"
        },
        {
          "internalType": "uint256",
          "name": "addedValue",
          "type": "uint256"
        }
      ],
      "name": "increaseAllowance",
      "outputs": [
        {
          "internalType": "bool",
          "name": "",
          "type": "bool"
        }
      ],
      "stateMutability": "nonpayable",
      "type": "function"
    },
    {
      "inputs": [],
      "name": "name",
      "outputs": [
        {
          "internalType": "string",
          "name": "",
          "type": "string"
        }
      ],
      "stateMutability": "view",
      "type": "function"
    },
    {
      "inputs": [],
      "name": "relayerAddress",
      "outputs": [
        {
          "internalType": "address",
          "name": "",
          "type": "address"
        }
      ],
      "stateMutability": "view",
      "type": "function"
    },
    {
      "inputs": [],
      "name": "symbol",
      "outputs": [
        {
          "internalType": "string",
          "name": "",
          "type": "string"
        }
      ],
      "stateMutability": "view",
      "type": "function"
    },
    {
      "inputs": [],
      "name": "totalSupply",
      "outputs": [
        {
          "internalType": "uint256",
          "name": "",
          "type": "uint256"
        }
      ],
      "stateMutability": "view",
      "type": "function"
    },
    {
      "inputs": [
        {
          "internalType": "address",
          "name": "to",
          "type": "address"
        },
        {
          "internalType": "uint256",
          "name": "amount",
          "type": "uint256"
        }
      ],
      "name": "transfer",
      "outputs": [
        {
          "internalType": "bool",
          "name": "",
          "type": "bool"
        }
      ],
      "stateMutability": "nonpayable",
      "type": "function"
    },
    {
      "inputs": [
        {
          "internalType": "address",
          "name": "from",
          "type": "address"
        },
        {
          "internalType": "address",
          "name": "to",
          "type": "address"
        },
        {
          "internalType": "uint256",
          "name": "amount",
          "type": "uint256"
        }
      ],
      "name": "transferFrom",
      "outputs": [
        {
          "internalType": "bool",
          "name": "",
          "type": "bool"
        }
      ],
      "stateMutability": "nonpayable",
      "type": "function"
    }
  ],
  "bytecode": "0x60806040523480156200001157600080fd5b506040516200266e3803806200266e8339818101604052810190620000379190620003e2565b6040518060400160405280600d81526020017f4761736c65737320546f6b656e000000000000000000000000000000000000008152506040518060400160405280600581526020017f474c544b4e0000000000000000000000000000000000000000000000000000008152508160039080519060200190620000bb9291906200031b565b508060049080519060200190620000d49291906200031b565b505050620000f38169d3c21bcecceda10000006200019860201b60201c565b6200010f3369d3c21bcecceda10000006200019860201b60201c565b33600560006101000a81548173ffffffffffffffffffffffffffffffffffffffff021916908373ffffffffffffffffffffffffffffffffffffffff16021790555080600660006101000a81548173ffffffffffffffffffffffffffffffffffffffff021916908373ffffffffffffffffffffffffffffffffffffffff1602179055505062000608565b600073ffffffffffffffffffffffffffffffffffffffff168273ffffffffffffffffffffffffffffffffffffffff1614156200020b576040517f08c379a0000000000000000000000000000000000000000000000000000000008152600401620002029062000446565b60405180910390fd5b6200021f600083836200031160201b60201c565b806002600082825462000233919062000496565b92505081905550806000808473ffffffffffffffffffffffffffffffffffffffff1673ffffffffffffffffffffffffffffffffffffffff16815260200190815260200160002060008282546200028a919062000496565b925050819055508173ffffffffffffffffffffffffffffffffffffffff16600073ffffffffffffffffffffffffffffffffffffffff167fddf252ad1be2c89b69c2b068fc378daa952ba7f163c4a11628f55a4df523b3ef83604051620002f1919062000468565b60405180910390a36200030d600083836200031660201b60201c565b5050565b505050565b505050565b828054620003299062000531565b90600052602060002090601f0160209004810192826200034d576000855562000399565b82601f106200036857805160ff191683800117855562000399565b8280016001018555821562000399579182015b82811115620003985782518255916020019190600101906200037b565b5b509050620003a89190620003ac565b5090565b5b80821115620003c7576000816000905550600101620003ad565b5090565b600081519050620003dc81620005ee565b92915050565b600060208284031215620003f557600080fd5b60006200040584828501620003cb565b91505092915050565b60006200041d601f8362000485565b91506200042a82620005c5565b602082019050919050565b620004408162000527565b82525050565b6000602082019050818103600083015262000461816200040e565b9050919050565b60006020820190506200047f600083018462000435565b92915050565b600082825260208201905092915050565b6000620004a38262000527565b9150620004b08362000527565b9250827fffffffffffffffffffffffffffffffffffffffffffffffffffffffffffffffff03821115620004e857620004e762000567565b5b828201905092915050565b6000620005008262000507565b9050919050565b600073ffffffffffffffffffffffffffffffffffffffff82169050919050565b6000819050919050565b600060028204905060018216806200054a57607f821691505b6020821081141562000561576200056062000596565b5b50919050565b7f4e487b7100000000000000000000000000000000000000000000000000000000600052601160045260246000fd5b7f4e487b7100000000000000000000000000000000000000000000000000000000600052602260045260246000fd5b7f45524332303a206d696e7420746f20746865207a65726f206164647265737300600082015250565b620005f981620004f3565b81146200060557600080fd5b50565b61205680620006186000396000f3fe608060405234801561001057600080fd5b50600436106100ea5760003560e01c806370a082311161008c578063a9059cbb11610066578063a9059cbb14610275578063dd62ed3e146102a5578063f851a440146102d5578063f950d2cb146102f3576100ea565b806370a08231146101f757806395d89b4114610227578063a457c2d714610245576100ea565b806318a7cca8116100c857806318a7cca81461015b57806323b872dd14610179578063313ce567146101a957806339509351146101c7576100ea565b806306fdde03146100ef578063095ea7b31461010d57806318160ddd1461013d575b600080fd5b6100f761030f565b60405161010491906117c6565b60405180910390f35b61012760048036038101906101229190611464565b6103a1565b6040516101349190611766565b60405180910390f35b6101456103c4565b6040516101529190611988565b60405180910390f35b6101636103ce565b604051610170919061174b565b60405180910390f35b610193600480360381019061018e91906113c1565b6103f4565b6040516101a09190611766565b60405180910390f35b6101b1610423565b6040516101be91906119a3565b60405180910390f35b6101e160048036038101906101dc9190611464565b61042c565b6040516101ee9190611766565b60405180910390f35b610211600480360381019061020c919061135c565b610463565b60405161021e9190611988565b60405180910390f35b61022f6104ab565b60405161023c91906117c6565b60405180910390f35b61025f600480360381019061025a9190611464565b61053d565b60405161026c9190611766565b60405180910390f35b61028f600480360381019061028a9190611464565b6105b4565b60405161029c9190611766565b60405180910390f35b6102bf60048036038101906102ba9190611385565b6105d7565b6040516102cc9190611988565b60405180910390f35b6102dd61065e565b6040516102ea919061174b565b60405180910390f35b61030d60048036038101906103089190611410565b610684565b005b60606003805461031e90611b32565b80601f016020809104026020016040519081016040528092919081815260200182805461034a90611b32565b80156103975780601f1061036c57610100808354040283529160200191610397565b820191906000526020600020905b81548152906001019060200180831161037a57829003601f168201915b5050505050905090565b6000806103ac610849565b90506103b9818585610851565b600191505092915050565b6000600254905090565b600660009054906101000a900473ffffffffffffffffffffffffffffffffffffffff1681565b6000806103ff610849565b905061040c858285610a1c565b610417858585610aa8565b60019150509392505050565b60006012905090565b600080610437610849565b905061045881858561044985896105d7565b6104539190611a3b565b610851565b600191505092915050565b60008060008373ffffffffffffffffffffffffffffffffffffffff1673ffffffffffffffffffffffffffffffffffffffff168152602001908152602001600020549050919050565b6060600480546104ba90611b32565b80601f01602080910402602001604051908101604052809291908181526020018280546104e690611b32565b80156105335780601f1061050857610100808354040283529160200191610533565b820191906000526020600020905b81548152906001019060200180831161051657829003601f168201915b5050505050905090565b600080610548610849565b9050600061055682866105d7565b90508381101561059b576040517f08c379a000000000000000000000000000000000000000000000000000000000815260040161059290611968565b60405180910390fd5b6105a88286868403610851565b60019250505092915050565b6000806105bf610849565b90506105cc818585610aa8565b600191505092915050565b6000600160008473ffffffffffffffffffffffffffffffffffffffff1673ffffffffffffffffffffffffffffffffffffffff16815260200190815260200160002060008373ffffffffffffffffffffffffffffffffffffffff1673ffffffffffffffffffffffffffffffffffffffff16815260200190815260200160002054905092915050565b600560009054906101000a900473ffffffffffffffffffffffffffffffffffffffff1681565b600560009054906101000a900473ffffffffffffffffffffffffffffffffffffffff1673ffffffffffffffffffffffffffffffffffffffff163373ffffffffffffffffffffffffffffffffffffffff16148061072d5750600660009054906101000a900473ffffffffffffffffffffffffffffffffffffffff1673ffffffffffffffffffffffffffffffffffffffff163373ffffffffffffffffffffffffffffffffffffffff16145b61076c576040517f08c379a000000000000000000000000000000000000000000000000000000000815260040161076390611908565b60405180910390fd5b6000604051806080016040528060478152602001611fda6047913980519060200120905060006107ad8361079f84610d29565b610d5990919063ffffffff16565b90508373ffffffffffffffffffffffffffffffffffffffff168173ffffffffffffffffffffffffffffffffffffffff161461081d576040517f08c379a0000000000000000000000000000000000000000000000000000000008152600401610814906118e8565b60405180910390fd5b6108303330678ac7230489e80000610851565b6108433385678ac7230489e80000610aa8565b50505050565b600033905090565b600073ffffffffffffffffffffffffffffffffffffffff168373ffffffffffffffffffffffffffffffffffffffff1614156108c1576040517f08c379a00000000000000000000000000000000000000000000000000000000081526004016108b890611948565b60405180910390fd5b600073ffffffffffffffffffffffffffffffffffffffff168273ffffffffffffffffffffffffffffffffffffffff161415610931576040517f08c379a000000000000000000000000000000000000000000000000000000000815260040161092890611848565b60405180910390fd5b80600160008573ffffffffffffffffffffffffffffffffffffffff1673ffffffffffffffffffffffffffffffffffffffff16815260200190815260200160002060008473ffffffffffffffffffffffffffffffffffffffff1673ffffffffffffffffffffffffffffffffffffffff168152602001908152602001600020819055508173ffffffffffffffffffffffffffffffffffffffff168373ffffffffffffffffffffffffffffffffffffffff167f8c5be1e5ebec7d5bd14f71427d1e84f3dd0314c0f7b2291e5b200ac8c7c3b92583604051610a0f9190611988565b60405180910390a3505050565b6000610a2884846105d7565b90507fffffffffffffffffffffffffffffffffffffffffffffffffffffffffffffffff8114610aa25781811015610a94576040517f08c379a0000000000000000000000000000000000000000000000000000000008152600401610a8b90611868565b60405180910390fd5b610aa18484848403610851565b5b50505050565b600073ffffffffffffffffffffffffffffffffffffffff168373ffffffffffffffffffffffffffffffffffffffff161415610b18576040517f08c379a0000000000000000000000000000000000000000000000000000000008152600401610b0f90611928565b60405180910390fd5b600073ffffffffffffffffffffffffffffffffffffffff168273ffffffffffffffffffffffffffffffffffffffff161415610b88576040517f08c379a0000000000000000000000000000000000000000000000000000000008152600401610b7f90611808565b60405180910390fd5b610b93838383610d80565b60008060008573ffffffffffffffffffffffffffffffffffffffff1673ffffffffffffffffffffffffffffffffffffffff16815260200190815260200160002054905081811015610c19576040517f08c379a0000000000000000000000000000000000000000000000000000000008152600401610c1090611888565b60405180910390fd5b8181036000808673ffffffffffffffffffffffffffffffffffffffff1673ffffffffffffffffffffffffffffffffffffffff16815260200190815260200160002081905550816000808573ffffffffffffffffffffffffffffffffffffffff1673ffffffffffffffffffffffffffffffffffffffff1681526020019081526020016000206000828254610cac9190611a3b565b925050819055508273ffffffffffffffffffffffffffffffffffffffff168473ffffffffffffffffffffffffffffffffffffffff167fddf252ad1be2c89b69c2b068fc378daa952ba7f163c4a11628f55a4df523b3ef84604051610d109190611988565b60405180910390a3610d23848484610d85565b50505050565b600081604051602001610d3c9190611725565b604051602081830303815290604052805190602001209050919050565b6000806000610d688585610d8a565b91509150610d7581610e0d565b819250505092915050565b505050565b505050565b600080604183511415610dcc5760008060006020860151925060408601519150606086015160001a9050610dc08782858561115e565b94509450505050610e06565b604083511415610dfd576000806020850151915060408501519050610df286838361126b565b935093505050610e06565b60006002915091505b9250929050565b60006004811115610e47577f4e487b7100000000000000000000000000000000000000000000000000000000600052602160045260246000fd5b816004811115610e80577f4e487b7100000000000000000000000000000000000000000000000000000000600052602160045260246000fd5b1415610e8b5761115b565b60016004811115610ec5577f4e487b7100000000000000000000000000000000000000000000000000000000600052602160045260246000fd5b816004811115610efe577f4e487b7100000000000000000000000000000000000000000000000000000000600052602160045260246000fd5b1415610f3f576040517f08c379a0000000000000000000000000000000000000000000000000000000008152600401610f36906117e8565b60405180910390fd5b60026004811115610f79577f4e487b7100000000000000000000000000000000000000000000000000000000600052602160045260246000fd5b816004811115610fb2577f4e487b7100000000000000000000000000000000000000000000000000000000600052602160045260246000fd5b1415610ff3576040517f08c379a0000000000000000000000000000000000000000000000000000000008152600401610fea90611828565b60405180910390fd5b6003600481111561102d577f4e487b7100000000000000000000000000000000000000000000000000000000600052602160045260246000fd5b816004811115611066577f4e487b7100000000000000000000000000000000000000000000000000000000600052602160045260246000fd5b14156110a7576040517f08c379a000000000000000000000000000000000000000000000000000000000815260040161109e906118a8565b60405180910390fd5b6004808111156110e0577f4e487b7100000000000000000000000000000000000000000000000000000000600052602160045260246000fd5b816004811115611119577f4e487b7100000000000000000000000000000000000000000000000000000000600052602160045260246000fd5b141561115a576040517f08c379a0000000000000000000000000000000000000000000000000000000008152600401611151906118c8565b60405180910390fd5b5b50565b6000807f7fffffffffffffffffffffffffffffff5d576e7357a4501ddfe92f46681b20a08360001c1115611199576000600391509150611262565b601b8560ff16141580156111b15750601c8560ff1614155b156111c3576000600491509150611262565b6000600187878787604051600081526020016040526040516111e89493929190611781565b6020604051602081039080840390855afa15801561120a573d6000803e3d6000fd5b505050602060405103519050600073ffffffffffffffffffffffffffffffffffffffff168173ffffffffffffffffffffffffffffffffffffffff16141561125957600060019250925050611262565b80600092509250505b94509492505050565b60008060007f7fffffffffffffffffffffffffffffffffffffffffffffffffffffffffffffff60001b841690506000601b60ff8660001c901c6112ae9190611a3b565b90506112bc8782888561115e565b935093505050935093915050565b60006112dd6112d8846119e3565b6119be565b9050828152602081018484840111156112f557600080fd5b611300848285611af0565b509392505050565b60008135905061131781611fab565b92915050565b600082601f83011261132e57600080fd5b813561133e8482602086016112ca565b91505092915050565b60008135905061135681611fc2565b92915050565b60006020828403121561136e57600080fd5b600061137c84828501611308565b91505092915050565b6000806040838503121561139857600080fd5b60006113a685828601611308565b92505060206113b785828601611308565b9150509250929050565b6000806000606084860312156113d657600080fd5b60006113e486828701611308565b93505060206113f586828701611308565b925050604061140686828701611347565b9150509250925092565b6000806040838503121561142357600080fd5b600061143185828601611308565b925050602083013567ffffffffffffffff81111561144e57600080fd5b61145a8582860161131d565b9150509250929050565b6000806040838503121561147757600080fd5b600061148585828601611308565b925050602061149685828601611347565b9150509250929050565b6114a981611a91565b82525050565b6114b881611aa3565b82525050565b6114c781611aaf565b82525050565b6114de6114d982611aaf565b611b95565b82525050565b60006114ef82611a14565b6114f98185611a1f565b9350611509818560208601611aff565b61151281611c2c565b840191505092915050565b600061152a601883611a1f565b915061153582611c3d565b602082019050919050565b600061154d602383611a1f565b915061155882611c66565b604082019050919050565b6000611570601f83611a1f565b915061157b82611cb5565b602082019050919050565b6000611593601c83611a30565b915061159e82611cde565b601c82019050919050565b60006115b6602283611a1f565b91506115c182611d07565b604082019050919050565b60006115d9601d83611a1f565b91506115e482611d56565b602082019050919050565b60006115fc602683611a1f565b915061160782611d7f565b604082019050919050565b600061161f602283611a1f565b915061162a82611dce565b604082019050919050565b6000611642602283611a1f565b915061164d82611e1d565b604082019050919050565b6000611665601e83611a1f565b915061167082611e6c565b602082019050919050565b6000611688601483611a1f565b915061169382611e95565b602082019050919050565b60006116ab602583611a1f565b91506116b682611ebe565b604082019050919050565b60006116ce602483611a1f565b91506116d982611f0d565b604082019050919050565b60006116f1602583611a1f565b91506116fc82611f5c565b604082019050919050565b61171081611ad9565b82525050565b61171f81611ae3565b82525050565b600061173082611586565b915061173c82846114cd565b60208201915081905092915050565b600060208201905061176060008301846114a0565b92915050565b600060208201905061177b60008301846114af565b92915050565b600060808201905061179660008301876114be565b6117a36020830186611716565b6117b060408301856114be565b6117bd60608301846114be565b95945050505050565b600060208201905081810360008301526117e081846114e4565b905092915050565b600060208201905081810360008301526118018161151d565b9050919050565b6000602082019050818103600083015261182181611540565b9050919050565b6000602082019050818103600083015261184181611563565b9050919050565b60006020820190508181036000830152611861816115a9565b9050919050565b60006020820190508181036000830152611881816115cc565b9050919050565b600060208201905081810360008301526118a1816115ef565b9050919050565b600060208201905081810360008301526118c181611612565b9050919050565b600060208201905081810360008301526118e181611635565b9050919050565b6000602082019050818103600083015261190181611658565b9050919050565b600060208201905081810360008301526119218161167b565b9050919050565b600060208201905081810360008301526119418161169e565b9050919050565b60006020820190508181036000830152611961816116c1565b9050919050565b60006020820190508181036000830152611981816116e4565b9050919050565b600060208201905061199d6000830184611707565b92915050565b60006020820190506119b86000830184611716565b92915050565b60006119c86119d9565b90506119d48282611b64565b919050565b6000604051905090565b600067ffffffffffffffff8211156119fe576119fd611bfd565b5b611a0782611c2c565b9050602081019050919050565b600081519050919050565b600082825260208201905092915050565b600081905092915050565b6000611a4682611ad9565b9150611a5183611ad9565b9250827fffffffffffffffffffffffffffffffffffffffffffffffffffffffffffffffff03821115611a8657611a85611b9f565b5b828201905092915050565b6000611a9c82611ab9565b9050919050565b60008115159050919050565b6000819050919050565b600073ffffffffffffffffffffffffffffffffffffffff82169050919050565b6000819050919050565b600060ff82169050919050565b82818337600083830152505050565b60005b83811015611b1d578082015181840152602081019050611b02565b83811115611b2c576000848401525b50505050565b60006002820490506001821680611b4a57607f821691505b60208210811415611b5e57611b5d611bce565b5b50919050565b611b6d82611c2c565b810181811067ffffffffffffffff82111715611b8c57611b8b611bfd565b5b80604052505050565b6000819050919050565b7f4e487b7100000000000000000000000000000000000000000000000000000000600052601160045260246000fd5b7f4e487b7100000000000000000000000000000000000000000000000000000000600052602260045260246000fd5b7f4e487b7100000000000000000000000000000000000000000000000000000000600052604160045260246000fd5b6000601f19601f8301169050919050565b7f45434453413a20696e76616c6964207369676e61747572650000000000000000600082015250565b7f45524332303a207472616e7366657220746f20746865207a65726f206164647260008201527f6573730000000000000000000000000000000000000000000000000000000000602082015250565b7f45434453413a20696e76616c6964207369676e6174757265206c656e67746800600082015250565b7f19457468657265756d205369676e6564204d6573736167653a0a333200000000600082015250565b7f45524332303a20617070726f766520746f20746865207a65726f20616464726560008201527f7373000000000000000000000000000000000000000000000000000000000000602082015250565b7f45524332303a20696e73756666696369656e7420616c6c6f77616e6365000000600082015250565b7f45524332303a207472616e7366657220616d6f756e742065786365656473206260008201527f616c616e63650000000000000000000000000000000000000000000000000000602082015250565b7f45434453413a20696e76616c6964207369676e6174757265202773272076616c60008201527f7565000000000000000000000000000000000000000000000000000000000000602082015250565b7f45434453413a20696e76616c6964207369676e6174757265202776272076616c60008201527f7565000000000000000000000000000000000000000000000000000000000000602082015250565b7f7369676e6174757265206d69736d6174636820776974682073656e6465720000600082015250565b7f6e6f742072656c61796572206f722061646d696e000000000000000000000000600082015250565b7f45524332303a207472616e736665722066726f6d20746865207a65726f20616460008201527f6472657373000000000000000000000000000000000000000000000000000000602082015250565b7f45524332303a20617070726f76652066726f6d20746865207a65726f2061646460008201527f7265737300000000000000000000000000000000000000000000000000000000602082015250565b7f45524332303a2064656372656173656420616c6c6f77616e63652062656c6f7760008201527f207a65726f000000000000000000000000000000000000000000000000000000602082015250565b611fb481611a91565b8114611fbf57600080fd5b50565b611fcb81611ad9565b8114611fd657600080fd5b5056fe5369676e20746865206d65737361676520746f20636c61696d2074686520313020474c544b4e20746f6b656e20776974686f7574207370656e64696e672067617320666565732ea2646970667358221220798c522f6e18c93df82fc2b631e3547c158d23f94fd3e05175f9f407e94bcb6c64736f6c63430008040033",
  "linkReferences": {},
  "deployedLinkReferences": {}
}